{
  "contractName": "Voting",
  "abi": [
    {
      "constant": true,
      "inputs": [
        {
          "name": "",
          "type": "bytes32"
        }
      ],
      "name": "votesReceived",
      "outputs": [
        {
          "name": "",
          "type": "uint8"
        }
      ],
      "payable": false,
      "stateMutability": "view",
      "type": "function"
    },
    {
      "constant": true,
      "inputs": [
        {
          "name": "",
          "type": "uint256"
        }
      ],
      "name": "candidateList",
      "outputs": [
        {
          "name": "",
          "type": "bytes32"
        }
      ],
      "payable": false,
      "stateMutability": "view",
      "type": "function"
    },
    {
      "inputs": [
        {
          "name": "candidateNames",
          "type": "bytes32[]"
        }
      ],
      "payable": false,
      "stateMutability": "nonpayable",
      "type": "constructor"
    },
    {
      "constant": true,
      "inputs": [],
      "name": "getCandidateList",
      "outputs": [
        {
          "name": "",
          "type": "bytes32[]"
        }
      ],
      "payable": false,
      "stateMutability": "view",
      "type": "function"
    },
    {
      "constant": true,
      "inputs": [
        {
          "name": "candidate",
          "type": "bytes32"
        }
      ],
      "name": "totalVotesFor",
      "outputs": [
        {
          "name": "",
          "type": "uint8"
        }
      ],
      "payable": false,
      "stateMutability": "view",
      "type": "function"
    },
    {
      "constant": false,
      "inputs": [
        {
          "name": "candidate",
          "type": "bytes32"
        }
      ],
      "name": "voteForCandidate",
      "outputs": [],
      "payable": false,
      "stateMutability": "nonpayable",
      "type": "function"
    },
    {
      "constant": true,
      "inputs": [
        {
          "name": "candidate",
          "type": "bytes32"
        }
      ],
      "name": "validCandidate",
      "outputs": [
        {
          "name": "",
          "type": "bool"
        }
      ],
      "payable": false,
      "stateMutability": "view",
      "type": "function"
    }
  ],
  "bytecode": "0x6060604052341561000f57600080fd5b6040516104c53803806104c5833981016040528080518201919050508060019080519060200190610041929190610048565b50506100c0565b82805482825590600052602060002090810192821561008a579160200282015b82811115610089578251829060001916905591602001919060010190610068565b5b509050610097919061009b565b5090565b6100bd91905b808211156100b95760008160009055506001016100a1565b5090565b90565b6103f6806100cf6000396000f300606060405260043610610078576000357c0100000000000000000000000000000000000000000000000000000000900463ffffffff1680632f265cf71461007d578063392e6678146100be5780637021939f146100fd578063b13c744b1461013e578063cc9ab2671461017d578063fdbc4006146101a4575b600080fd5b341561008857600080fd5b6100a260048080356000191690602001909190505061020e565b604051808260ff1660ff16815260200191505060405180910390f35b34156100c957600080fd5b6100e3600480803560001916906020019091905050610253565b604051808215151515815260200191505060405180910390f35b341561010857600080fd5b6101226004808035600019169060200190919050506102b3565b604051808260ff1660ff16815260200191505060405180910390f35b341561014957600080fd5b61015f60048080359060200190919050506102d3565b60405180826000191660001916815260200191505060405180910390f35b341561018857600080fd5b6101a26004808035600019169060200190919050506102f7565b005b34156101af57600080fd5b6101b7610354565b6040518080602001828103825283818151815260200191508051906020019060200280838360005b838110156101fa5780820151818401526020810190506101df565b505050509050019250505060405180910390f35b600061021982610253565b151561022457600080fd5b600080836000191660001916815260200190815260200160002060009054906101000a900460ff169050919050565b600080600090505b6001805490508110156102a857826000191660018281548110151561027c57fe5b90600052602060002090015460001916141561029b57600191506102ad565b808060010191505061025b565b600091505b50919050565b60006020528060005260406000206000915054906101000a900460ff1681565b6001818154811015156102e257fe5b90600052602060002090016000915090505481565b61030081610253565b151561030b57600080fd5b6001600080836000191660001916815260200190815260200160002060008282829054906101000a900460ff160192506101000a81548160ff021916908360ff16021790555050565b61035c6103b6565b60018054806020026020016040519081016040528092919081815260200182805480156103ac57602002820191906000526020600020905b81546000191681526020019060010190808311610394575b5050505050905090565b6020604051908101604052806000815250905600a165627a7a7230582045e6eb1d54674ac8eba7f75bd2dc5daa360ee330004d84b346ff7c4d32118b470029",
  "source": "pragma solidity ^0.4.18;\n\ncontract Voting {\n  \n  /*\n  A mapping field is similar to an associative array or object hash. The mapping key is the candidates name stored as bytes32 and the value is uint8 to store the vote count.\n  */\n  mapping(bytes32 => uint8) public votesReceived;\n\n  /*\n  An array of bytes32 to store the list of candidates.\n  */\n  bytes32[] public candidateList;\n\n  /*\n  Get the voting candidates.\n  */\n  function getCandidateList() constant returns (bytes32[]) {\n    return candidateList;\n  }\n\n  /*\n  The constructor will only be called once when the contract is deployed. When we deploy the contract we will pass an array of candidates who will be contesting in the election.\n  */\n  function Voting(bytes32[] candidateNames) public {\n    candidateList = candidateNames;\n  }\n\n  /*\n  Returns the total votes a candidate has received so far.\n  */\n  function totalVotesFor(bytes32 candidate) view public returns (uint8) {\n    require(validCandidate(candidate));\n    return votesReceived[candidate];\n  }\n\n  /*\n  Increment the vote count for a given candidate.\n  */\n  function voteForCandidate(bytes32 candidate) public {\n    require(validCandidate(candidate));\n    votesReceived[candidate] += 1;\n  }\n\n  /*\n  Determine if a given candidate exists.\n  */\n  function validCandidate(bytes32 candidate) view public returns (bool) {\n    for(uint i = 0; i < candidateList.length; i++) {\n      if (candidateList[i] == candidate) {\n        return true;\n      }\n    }\n    return false;\n  }\n}",
  "sourcePath": "/Users/skylerrichter/Sites/test/contracts/Voting.sol",
  "compiler": {
    "name": "solc",
    "version": "0.4.19+commit.c4cbbb05.Emscripten.clang"
  },
  "schemaVersion": "1.0.1",
  "updatedAt": "2018-02-23T03:21:54.309Z"
}